:020000040000fa
:080000000002040000000000f2
:020000040000fa
:040008002a030000c7
:020000040000fa
:04000c003c030000b1
:020000040000fa
:040010005403000095
:020000040000fa
:0400140032030000b3
:020000040000fa
:04001800440300009d
:020000040000fa
:04001c004c03000091
:020000040000fa
:040020005c0300007d
:020000040000fa
:04002400f4040000e0
:020000040000fa
:04002800f4040000dc
:020000040000fa
:04002c00f4040000d8
:020000040000fa
:04003000f4040000d4
:020000040000fa
:04003400f4040000d0
:020000040000fa
:04003800f4040000cc
:020000040000fa
:04003c00f4040000c8
:020000040000fa
:04004000f4040000c4
:020000040000fa
:04004400f4040000c0
:020000040000fa
:04004800820400002e
:020000040000fa
:04004c00f4040000b8
:020000040000fa
:04005000f4040000b4
:020000040000fa
:0400540000040000a4
:020000040000fa
:040058009e03000003
:020000040000fa
:04005c00f4040000a8
:020000040000fa
:04006000f4040000a4
:020000040000fa
:04006400f4040000a0
:020000040000fa
:04006800d6040000ba
:020000040000fa
:04006c00b8040000d4
:020000040000fa
:04007000f404000094
:020000040000fa
:04007400f404000090
:020000040000fa
:04007800f40400008c
:020000040000fa
:04007c00f404000088
:020000040000fa
:04008000f404000084
:020000040000fa
:04008400f404000080
:020000040000fa
:04008800f40400007c
:020000040000fa
:04008c00f404000078
:020000040000fa
:04009000f404000074
:020000040000fa
:04009400f404000070
:020000040000fa
:04009800f40400006c
:020000040000fa
:04009c00f404000068
:020000040000fa
:0400a000f404000064
:020000040000fa
:0400a400f404000060
:020000040000fa
:0400a800f40400005c
:020000040000fa
:0400ac00f404000058
:020000040000fa
:0400b000f404000054
:020000040000fa
:0400b400f404000050
:020000040000fa
:0400b800f40400004c
:020000040000fa
:0400bc00f404000048
:020000040000fa
:0400c000f404000044
:020000040000fa
:0400c400f404000040
:020000040000fa
:0400c800f40400003c
:020000040000fa
:0400cc00f404000038
:020000040000fa
:0400d000f404000034
:020000040000fa
:0400d400f404000030
:020000040000fa
:0400d800f40400002c
:020000040000fa
:0400dc00f404000028
:020000040000fa
:0400e000f404000024
:020000040000fa
:0400e400f404000020
:020000040000fa
:0400e800f40400001c
:020000040000fa
:0400ec00f404000018
:020000040000fa
:0400f000f404000014
:020000040000fa
:0400f400f404000010
:020000040000fa
:0400f800f40400000c
:020000040000fa
:0400fc00f404000008
:020000040000fa
:04010000f404000003
:020000040000fa
:04010400f4040000ff
:020000040000fa
:04010800f4040000fb
:020000040000fa
:04010c00f4040000f7
:020000040000fa
:04011000f4040000f3
:020000040000fa
:04011400f4040000ef
:020000040000fa
:04011800f4040000eb
:020000040000fa
:04011c00f4040000e7
:020000040000fa
:04012000f4040000e3
:020000040000fa
:04012400f4040000df
:020000040000fa
:04012800f4040000db
:020000040000fa
:04012c006c0400005f
:020000040000fa
:04013000f4040000d3
:020000040000fa
:04013400f4040000cf
:020000040000fa
:04013800f4040000cb
:020000040000fa
:04013c00f4040000c7
:020000040000fa
:04014000f4040000c3
:020000040000fa
:04014400f4040000bf
:020000040000fa
:04014800f4040000bb
:020000040000fa
:04014c00f4040000b7
:020000040000fa
:04015000f4040000b3
:020000040000fa
:04015400f4040000af
:020000040000fa
:04015800f4040000ab
:020000040000fa
:04015c00f4040000a7
:020000040000fa
:04016000f4040000a3
:020000040000fa
:04016400f40400009f
:020000040000fa
:04016800f40400009b
:020000040000fa
:04016c00f404000097
:020000040000fa
:04017000f404000093
:020000040000fa
:04017400f40400008f
:020000040000fa
:04017800f40400008b
:020000040000fa
:04017c00f404000087
:020000040000fa
:04018000f404000083
:020000040000fa
:04018400f40400007f
:020000040000fa
:04018800f40400007b
:020000040000fa
:04018c00f404000077
:020000040000fa
:04019000f404000073
:020000040000fa
:04019400f40400006f
:020000040000fa
:04019800f40400006b
:020000040000fa
:04019c00f404000067
:020000040000fa
:0401a000f404000063
:020000040000fa
:0401a400f40400005f
:020000040000fa
:0401a800f40400005b
:020000040000fa
:0401ac00f404000057
:020000040000fa
:0401b000f404000053
:020000040000fa
:0401b400f40400004f
:020000040000fa
:0401b800f40400004b
:020000040000fa
:0401bc00f404000047
:020000040000fa
:0401c000f404000043
:020000040000fa
:0401c400f40400003f
:020000040000fa
:0401c800f40400003b
:020000040000fa
:0401cc00f404000037
:020000040000fa
:0401d000f404000033
:020000040000fa
:0401d400f40400002f
:020000040000fa
:0401d800f40400002b
:020000040000fa
:0401dc00f404000027
:020000040000fa
:0401e000f404000023
:020000040000fa
:0401e400f40400001f
:020000040000fa
:0401e800f40400001b
:020000040000fa
:0401ec00f404000017
:020000040000fa
:0401f000f404000013
:020000040000fa
:0401f400f40400000f
:020000040000fa
:0401f800f40400000b
:020000040000fa
:0401fc00f404000007
:020000040000fa
:04020000f404000002
:020000040000fa
:04020400f4040000fe
:020000040000fa
:04020800f4040000fa
:020000040000fa
:04020c00f4040000f6
:020000040000fa
:04021000f4040000f2
:020000040000fa
:04021400f4040000ee
:020000040000fa
:04021800f4040000ea
:020000040000fa
:04021c00f4040000e6
:020000040000fa
:04022000f4040000e2
:020000040000fa
:04022400f4040000de
:020000040000fa
:04022800f4040000da
:020000040000fa
:04022c00f4040000d6
:020000040000fa
:04023000f4040000d2
:020000040000fa
:04023400f4040000ce
:020000040000fa
:04023800f4040000ca
:020000040000fa
:04023c00f4040000c6
:020000040000fa
:04024000f4040000c2
:020000040000fa
:04024400f4040000be
:020000040000fa
:04024800f4040000ba
:020000040000fa
:04024c00f4040000b6
:020000040000fa
:04025000f4040000b2
:020000040000fa
:04025400f4040000ae
:020000040000fa
:04025800f4040000aa
:020000040000fa
:04025c00f4040000a6
:020000040000fa
:04026000f4040000a2
:020000040000fa
:04026400f40400009e
:020000040000fa
:04026800f40400009a
:020000040000fa
:04026c00f404000096
:020000040000fa
:04027000f404000092
:020000040000fa
:04027400f40400008e
:020000040000fa
:04027800f40400008a
:020000040000fa
:04027c00f404000086
:020000040000fa
:04028000f404000082
:020000040000fa
:04028400f40400007e
:020000040000fa
:04028800f40400007a
:020000040000fa
:04028c00f404000076
:020000040000fa
:04029000f404000072
:020000040000fa
:04029400f40400006e
:020000040000fa
:04029800f40400006a
:020000040000fa
:04029c00f404000066
:020000040000fa
:0402a000f404000062
:020000040000fa
:0402a400f40400005e
:020000040000fa
:0402a800f40400005a
:020000040000fa
:0402ac00f404000056
:020000040000fa
:0402b000f404000052
:020000040000fa
:0402b400f40400004e
:020000040000fa
:0402b800f40400004a
:020000040000fa
:0402bc00f404000046
:020000040000fa
:0402c000f404000042
:020000040000fa
:0402c400f40400003e
:020000040000fa
:0402c800f40400003a
:020000040000fa
:0402cc00f404000036
:020000040000fa
:0402d000f404000032
:020000040000fa
:0402d400f40400002e
:020000040000fa
:0402d800f40400002a
:020000040000fa
:0402dc00f404000026
:020000040000fa
:0402e000f404000022
:020000040000fa
:0402e400f40400001e
:020000040000fa
:0402e800f40400001a
:020000040000fa
:0402ec00f404000016
:020000040000fa
:0402f000f404000012
:020000040000fa
:0402f400f40400000e
:020000040000fa
:0402f800f40400000a
:020000040000fa
:0402fc00f404000006
:020000040000fa
:04030000f404000001
:020000040000fa
:04030400f4040000fd
:020000040000fa
:04030800f4040000f9
:020000040000fa
:04030c00f4040000f5
:020000040000fa
:04031000f4040000f1
:020000040000fa
:10040000ef3621000eff24000e01880000000000de
:10041000000020000000e000020032000001200087
:100420002002880014000700e60107000000e00039
:1004300003003a00c09124000100200002003700b0
:100440000000200001002000810f70000100320038
:100450000f000700000020000000e0000200320052
:1004600000000200000000008233020000000000d3
:100470000040da000000fe00c03220000000e00072
:1004800002003200002020009001880000000600d9
:10049000a1028800800478000000eb001f003700f4
:1004a000e284440054a0b4009905ba00e2844400f8
:1004b00054a0b4009906ba00e284440054a0b400e9
:1004c0000006eb00476fde00fd07b200ae018800ba
:1004d000636ce10003003a000ad801000000eb0061
:1004e0000e003700606ce10008003a00004deb00a0
:1004f0000a05e800020039003420ec000af0a000f0
:100500008b05e900f9ff3e00040037006168e10057
:10051000010032000086eb000b00070019c7ba008b
:100520000e04e0001905ba0003003a000a00e000da
:10053000dbff3a0000000600fe07b200ae028800b2
:100540008a047800f5ff37000cd0a300e20f4d00bd
:100550001c00390089027800354dba000a05e80010
:10056000020039003420ec000af0a0008b05e900fd
:100570000f003200254dba000a05e80002003900dc
:100580003420ec000af0a0008b05e90008003200de
:100590000c00e0000600320015cdba000a05e800a4
:1005a000020039003420ec000af0a0008b05e900bd
:1005b0008984e80054a0b4000b00e000e2ff3a0098
:1005c000000006009902ba00055d78008b05e9007d
:1005d000f7ff3200c82ade00055d78008b05e900d0
:1005e000f3ff32000c00e000f1ff320019ddba0029
:1005f000eeff3700f2560400000000004c440400f7
:10060000000000006a440400000000000e560400d0
:1006100000000000124d040000000000161c040041
:1006200000000000bc080400000000005a0a04009a
:1006300000000000740a040000000000a20a040088
:1006400000000000da1504000000000000000400b3
:10065000000000003600f800c028a9000000eb00f0
:10066000712a07003600f800732a0700c048a90065
:10067000100020006c2a07003600f800c068a900ae
:1006800020002000682a07003600f800c088a90072
:1006900030002000642a07003600f800c0a8a90036
:1006a00040002000602a07003600f800c608a900b4
:1006b000700020005c2a07003600f8002146800008
:1006c00000102000008060000000e0000300320005
:1006d000c508a900c0002000532a07002146800059
:1006e00000002800008060000000e00003003200ed
:1006f000c5e8a900800020004b2a070021468000a1
:1007000000022000008060000000e00003003200d2
:10071000c4a8a90090002000432a070020468000ba
:10072000700060000000e00003003200c488a900ef
:10073000a00020003c2a0700ffff37003600f80029
:10074000809fbe00829fbe00849fbe00869fbe0029
:100750000000fa00b08280000000e00002003200d9
:10076000b0828000000001009182800080828000c1
:10077000808f500002003a002188a900190037003c
:100780000188a90010003700908280009040780016
:100790008180fb00211188000000e8009082880021
:1007a0009182800030352100808f500002003a0095
:1007b000a034210090828800918280008082800095
:1007c000808f5000060032001111800000202000b0
:1007d000008060000000e000ebff32000100370005
:1007e000000000000080fa004f03be004f02be0070
:1007f0004f01be004f00be003600f9000040060069
:100800003600f800809fbe00829fbe00849fbe001d
:10081000869fbe000000fa00c08280000000e00059
:1008200002003200c0828000000001000168a900bf
:100830001e00370060828000311180008140780006
:100840000148780061828000b0352100808f50001f
:1008500009003200608280008000e8007082800021
:10086000808f500004003200608280000000e800a9
:10087000608288000d00370061828000b035210061
:10088000808f500007003a007182800030352100cf
:10089000808f5000030032003035210060828800d4
:1008a0000200370010c0b30054f0b70010118000f0
:1008b000610060000000e000deff3a000080fa0006
:1008c0004f03be004f02be004f01be004f00be00ee
:1008d0003600f90000400600801f78000000fa0092
:1008e00010118000620060000000e0000100320092
:1008f0002222a9000828a9000080fa004f007800f1
:10090000004006003600f800809fbe00829fbe00b7
:10091000849fbe00869fbe000000fa0060838000b6
:100920000000e0000200320060838000000001004f
:1009300050362100104078008040e80050362100f9
:10094000014878004036210011c0b300014878000a
:100950000108a9000080fa004f03be004f02be004c
:100960004f01be004f00be003600f90000400600f7
:100970003600f800809fbe00829fbe00849fbe00ac
:10098000869fbe000000fa00208380000000010066
:100990000080fa004f03be004f02be004f01be00b0
:1009a0004f00be003600f900004006003600f80097
:1009b000809fbe00829fbe00849fbe00869fbe00b7
:1009c0000000fa0030838000000001000080fa007f
:1009d0004f03be004f02be004f01be004f00be00dd
:1009e0003600f900004006000040da000000fe007a
:1009f0000a00fa0011002000b1bf9f00c0bf9f0095
:100a00006a805700220907004fb897000080fa005b
:100a1000000006000a00fa00e20f500034003e0019
:100a2000509b8000e10f500003003200e20f5000a5
:100a300011003a000c003700032220000300e00000
:100a400001003a000040da002002e2000200350016
:100a50002822ef0021e2a8002342ab000d003a005b
:100a60002342a8000b003700032320000300e0000e
:100a700001003a000040da003002e20002003500d6
:100a80003822ef0031e2a8003342ab0001003a0007
:100a90003342a800820178000b0037003102fb00ce
:100aa000e10f500004003a002322ab00feff3a00a1
:100ab00024118800030037003322ab00feff3a0008
:100ac000a41188008301e9000300e000f3ff3a006d
:100ad000e10f500003003a002302ab00feff32009a
:100ae0000b0037003302ab00feff32000800370076
:100af00033002000b3bf9f00c0bf9f00d1bf9f0045
:100b0000e2bf9f006a805700e30807006fb99700b3
:100b1000020078000080fa00000006000a00fa00d7
:100b200051002000b1bf9f00c0bf9f006a805700e6
:100b3000db0807005fb897000080fa00000006009d
:100b4000889fbe0080047800609b80000000e00069
:100b500004003a000e0007000084eb000000e000f3
:100b600008003500689b80000900e00005003200a5
:100b700009004400060007000000e00001003d00fd
:100b80000084eb00080078004f04be00000006005f
:100b9000800078000100e00003003a00000020001f
:100ba000609b8800000005000080eb000200200030
:100bb000828f500002003e00619b88000000eb0025
:100bc00000000600000005006022b80006022000b8
:100bd0000000d0008180d2000482d2008582d20041
:100be0000000a0000202520083825a00030031007c
:100bf0000202420083824a000000a1000603e900cd
:100c0000f3ff3a0000000600889fbe008a9fbe00e6
:100c100030044200b0844a0030054b0090854b0000
:100c20006000b1000898be000a90be000440e100d8
:100c300005c8e10006d0e10007d8e100020031005c
:100c4000680040001008e8004f05be004f04be00d9
:100c500000000600889fbe008a9fbe001004780036
:100c60009004900020059000b005900004185400f6
:100c700005985c0006185d0007985d0011002000d3
:100c80000440e10005c8e10006d0e10007d8e1001a
:100c9000010039008000eb00108810004f05be00f5
:100ca0004f04be00000006001200fa00889fbe003c
:100cb0008a9fbe008c9fbe00e0b79f00f1b79f00e7
:100cc00082bf9f0093bf9f000605be000404be00c4
:100cd0000000eb00d0b79f00c0b79f00b0b79f00e7
:100ce000a0b79f0090b79f00000678005fb1970003
:100cf000cfb09700820141003fb097000200e000b2
:100d000004003d00370007007e805700beff07004b
:100d100003003700330007007e805700cdff070037
:100d2000dfb697000d00e0000c0035006fb29700b1
:100d3000ffb297000fbb97009fbb970010002000e9
:100d4000010020006011b800000272008182720070
:100d500002037300838373001b0007000c06e80086
:100d600001042000810f5600e0ff3a000d00e00072
:100d700004003d000802be000a03be007e8057004a
:100d8000a1ff07005fa897000000e00005003a00ff
:100d90001fb29700afb297003fb39700cfb3970051
:100da000090007006fb09700ffb097000fb99700d8
:100db0009fb997004f06be004f05be004f04be000e
:100dc0000080fa0000000600010007000000060095
:100dd000a4b79f00b5b79f00c6b79f00d7b79f00c5
:100de000000006004f09de0082817100b3b79f004a
:100df0004f01de008180400082807000a1b79f001b
:100e00008fb097004f09de00000040000200700024
:100e100090b79f007fa897004f01de0081804000bf
:100e20008280700081b79f000d0007004f3ade00fe
:100e30000000400004007000f0af9f0008000700b1
:100e40000402420085824a0006034b0087834b0060
:100e5000dfff07000802be000a03be000000060014
:100e60002fb29700bfb297004fb39700dfb3970040
:100e700000000600881f780018002000881f7800f6
:100e800089ff07008f87e9004f0478000000060003
:100e9000801feb0084ff07008f87e9000000060039
:100ea000889fbe008a9fbe00e00f5000e08f580070
:100eb000e00f5900e08f59000c003d006044b8007d
:100ec0006055b8000000540081805c0002015d00a4
:100ed00083815d00180020001500070008003d0018
:100ee000180007000004eb00050037000004eb00c9
:100ef0000f00070002003d0012000700180020004c
:100f0000dcff07000800e000060032006022b800a5
:100f10006033b8000000520081805a0002015b007b
:100f200083815b004f05be004f04be000000060039
:100f3000e00f5200e08f5a00e00f5b00e08f5b0093
:100f4000000006006044b8006055b8000402540078
:100f500085825c0006035d0087835d00000006005b
:100f6000889fbe008a9fbe008c1f7800e00f500053
:100f7000e08f5800e00f5900e08f59000d003d0050
:100f80006044b8006055b8000000540081805c00e7
:100f900002015d0083815d001c0020000820e1004b
:100fa00009a8e1000ab0e1000bb8e1000d003d0026
:100fb000080037000006eb00e00f5200e08f5a00f7
:100fc000e00f5b00e08f5b0006003d006044b8006e
:100fd0006055b8000402540085825c0006035d0081
:100fe00087835d00aaff07000c00e00006003200c6
:100ff0006022b8006033b8000000520081805a00bf
:1010000002015b0083815b004f0678004f05be0044
:101010004f04be0000000600889fbe008a9fbe00ed
:101020008c1f78000006eb00e00f5000e08f5800a6
:10103000e00f5900e08f590007003d006044b80000
:101040006055b8000000540081805c0002015d0022
:1010500083815d001c002000e00f5200e08f5a00e9
:10106000e00f5b00e08f5b0007003d006044b800cc
:101070006055b8000402540085825c0006035d00e0
:1010800087835d000c00a2000c0007000c00e0004c
:10109000060032006022b8006033b8000000520041
:1010a00081805a0002015b0083815b004f0678005b
:1010b0004f05be004f04be0000000600889fbe0022
:1010c0008a9fbe008c9fbe000404b8000506b800cd
:1010d0008904460060854e000606b8000a054600f1
:1010e000e0854e000706b8008b054600040eb800e8
:1010f000890446000a854e00e0854d00050eb800c3
:101100000a0546008b854e00060eb8008b0546008a
:101110000416b8000a0546008b854e000516b80077
:101120008b054600041eb8008b0546000800be0073
:101130000a01be004f06be004f05be004f04be00b0
:10114000000006008001780002003700b1597800e5
:101150000201e9000200e000fcff3a000000060086
:1011600080007800010178003104e000fdff3a00c2
:101170000000510000000600889fbe0000047800b7
:101180000203be008104780008027800890178001b
:10119000120020000600be0044050700890f500021
:1011a000010032000004eb00080078004f04be008c
:1011b000000006006800fa00889fbe008a9fbe00fb
:1011c0008004780001047800820578000305780027
:1011d0008400780000f92f000f004000310507005f
:1011e000d98f9f00fb8f9f000000eb00a09f9f0006
:1011f000e88f9f009a84fb000904fb008904ea0041
:10120000cf4cde0050022000800f54000d00320051
:10121000e18f54000b003a00090178008a00780041
:101220007f889700df89970003000100f08f9f00ff
:101230000000e000950032002f9897000000e800c1
:10124000a09f9f000905450050022000800f540018
:10125000040032000800e000e6ff3a002f989700f3
:101260008b0037000000eb00809f9f00f0979f00ed
:10127000e0979f00d0979f00c0979f00b0979f0076
:1012800007003700a132210001005000000040009b
:10129000e1312100808040004f98970011007000dc
:1012a000c09f9f000a04780008057800ba447800bf
:1012b0008900fb00a0322100d70207000000e000f7
:1012c000f0ff3a00a1c2b30081cf54000e003a00f3
:1012d0008f8897000180e900808f9f0010007800c0
:1012e000b09f9f000000e00005003d000000ea0004
:1012f000b09f9f004f9897000020a000c09f9f00c4
:101300000804e80010003700b09f9f0088007800b4
:101310000000eb0005003700f3ff2700830f5000ab
:1013200002003200ea00b900000041000104780028
:10133000880078003101fb000203b100e90f510081
:10134000f5ff3600b09f9f00e0c2b300984f100039
:10135000020032000080eb0019003700a0c2b30089
:10136000d84f100007003a008f8897000180e900ed
:10137000808f9f0010007800909f9f000804e80075
:10138000100037000000eb00909f9f00880078005d
:1013900005003700f3ff2700830f500002003200e2
:1013a000ea00b900000041000104780088007800dc
:1013b0003101fb000203b100e90f5100f5ff3600d7
:1013c000909f9f00984478008900fb0060312100c5
:1013d000910207000000e000020032000804e8006b
:1013e000010037008044eb00a97f9f0080c6b30056
:1013f00080cf540006003a0098cf140010003a0045
:1014000066405000a07f9f000804e8000c003700f1
:10141000c0c6b30080cf540009003a0098cf140032
:1014200007003a0067404000d84f100002003a0021
:101430006e4050000100370010c7b300a07f9f002e
:101440001801fb00c3fb2f008f81410001f92f0021
:101450008f80400020f92f000f0040000801070096
:101460000000e00009003a00c1fb2f008f8040001f
:1014700020f92f000f004000b00307000000e0003b
:10148000020035000805e8005aff37000080eb0035
:101490004f05be004f04be000080fa0000000600a9
:1014a000030278008201780001017800c18b2000de
:1014b00040ff3700889fbe00800478000203be0012
:1014c000010478006149b800898fd2008381d2007d
:1014d000080278000600be0073060700088044007a
:1014e0004f04be0000000600881f78000204780048
:1014f0000801780013ff0700080040004f0478003f
:10150000000006000000fa00881f78000004780040
:101510006a825700bfb9970008017800a1a5200092
:1015200040a72000160007000000e0000200350080
:1015300000044400004ceb004f0478000080fa00e7
:1015400000000600889fbe00000478000203be0071
:1015500081047800080278008901780012002000d8
:101560000600be0051040700890f50000100320040
:101570000004eb00080078004f04be0000000600e5
:101580006800fa00889fbe008a9fbe008004780031
:101590000104780082057800030578008400780053
:1015a00000f92f000f0040003e040700d98f9f0074
:1015b000fb8f9f000000eb00a09f9f00e88f9f0023
:1015c0009a84fb000904fb008904ea00cf4cde008a
:1015d00050022000800f54000d003200e18f5400b3
:1015e0000b003a00090178008a0078007f88970094
:1015f000df89970003000100f08f9f000000e000ea
:10160000950032002f9897000000e800a09f9f00ef
:101610000905450050022000800f540004003200ec
:101620000800e000e6ff3a002f9897008b00370093
:101630000000eb00809f9f00f0979f00e0979f00c5
:10164000d0979f00c0979f00b0979f00070037007a
:10165000413421000100500000004000813321008e
:10166000808040004f98970011007000c09f9f003d
:101670000a04780008057800ba4478008900fb0065
:1016800040342100e40107000000e000f0ff3a00d0
:10169000a1c2b30081cf54000e003a008f8897009a
:1016a0000180e900808f9f0010007800b09f9f00ac
:1016b0000000e00005003d000000ea00b09f9f0030
:1016c0004f9897000020a000c09f9f000804e800ea
:1016d00010003700b09f9f00880078000000eb00ea
:1016e00005003700f3ff2700830f5000020032008f
:1016f000ea00b90000004100010478008800780089
:101700003101fb000203b100e90f5100f5ff360083
:10171000b09f9f00e0c2b300984f1000020032005b
:101720000080eb0019003700a0c2b300d84f1000b2
:1017300007003a008f8897000180e900808f9f00a2
:1017400010007800909f9f000804e8001000370008
:101750000000eb00909f9f00880078000500370094
:10176000f3ff2700830f500002003200ea00b900a7
:101770000000410001047800880078003101fb007e
:101780000203b100e90f5100f5ff3600909f9f0062
:10179000984478008900fb00003321009e01070077
:1017a0000000e000020032000804e80001003700f9
:1017b0008044eb00a97f9f0080c6b30080cf540017
:1017c00006003a0098cf140010003a00664050001e
:1017d000a07f9f000804e8000c003700c0c6b300db
:1017e00080cf540009003a0098cf140007003a0057
:1017f00067404000d84f100002003a006e40500091
:101800000100370010c7b300a07f9f001801fb0044
:10181000c3fb2f008f81410001f92f008f80400012
:1018200020f92f000f004000150007000000e00025
:1018300009003a00c1fb2f008f80400020f92f00e3
:101840000f004000bd0207000000e000020035006c
:101850000805e8005aff37000080eb004f05be0086
:101860004f04be000080fa0000000600030278006a
:10187000820178000101780021aa200040ff370092
:10188000889fbe008a1f780000047800010078005d
:1018900082407800e2c6b30082cf5000d10032000f
:1018a00015003c006b41510082cf500024003200f3
:1018b0000a003c007041510082cf50000a01320002
:1018c0006541410082cf50007200320050c2b30027
:1018d00080cf50003a013a003601370042c6b300cb
:1018e00082cf50001c0032006541410082cf500081
:1018f00033013a001800370032c7b30082cf5000de
:10190000f900320007003c006441510082cf5000d2
:10191000600032000241e80082cf500028013a0006
:10192000e300370052c7b30082cf500059003200a5
:101930006341410082cf500021013a005500370039
:101940009080e9000108780028089000808141001b
:10195000914978002001370008699000c4c6b3009f
:10196000844f510008003a001002780064015200d0
:101970000208780012027800920290004fabde005d
:10198000860378001300370014c7b300844f51005a
:1019900003003200a4c6b300844f510008003a008f
:1019a00010027800680152000208780012027800e4
:1019b0009202900022039000b203900005003700cd
:1019c0001081e9000208780012027800cfa2de0040
:1019d000612bb900049cbe000694be00086890000c
:1019e00082c6b300824f50000d00320022c6b30001
:1019f000824f500004003a000402fb00cfa2de0038
:101a0000612bb9000800370042c7b300824f500075
:101a10000300320066414100824f500004003a004a
:101a2000cfa2de00612bb900049cbe000694be006c
:101a3000180278009802900028039000b8039000e4
:101a400028089000e00f5200e08f5a00e00f5b0082
:101a5000e08f5b0003003d0000814100d4c2b30071
:101a60000a003700381190000218a300030032006a
:101a700000814100b4c2b300040037000208a30093
:101a8000540032000081410004c2b30004497800d0
:101a90004e00370008699000c4c6b300844f51005f
:101aa00007003a0010027800640152000208780032
:101ab00012027800920290006033b80013003700e1
:101ac00014c7b300844f510003003200a4c6b30012
:101ad000844f510008003a0010027800680152005b
:101ae000020878001202780092029000220390000f
:101af000b2039000050037001081e9000208780069
:101b0000120278008002eb006033b800049cbe0033
:101b10000694be000868900082c6b300824f500051
:101b20000d00320022c6b300824f500004003a007c
:101b30000482fb008002eb006033b800080037002d
:101b400042c7b300824f500003003200664141009b
:101b5000824f500004003a008002eb006033b8006e
:101b6000049cbe000694be00381090000038a3000c
:101b700018003200180278009802900028039000a4
:101b8000b8039000e00f5200e08f5a00e00f5b00b6
:101b9000e08f5b000f00320080c7b30080cf5000a1
:101ba0000300320080c5b30080cf500009003a0026
:101bb000280890000081410004c3b3000449780064
:101bc0000000e80000814100014978000000e800c1
:101bd000200c980028089000808141007304980030
:101be0003e00370008699000c3c6b3009080e9004a
:101bf000834f5100220032000a003c00e4c1510032
:101c0000834f51002500320083c1e800834f51000b
:101c100013003200e8c15100834f51001e003a000a
:101c20000a00370043c7b300834f51001b00320046
:101c3000e6c14100834f510018003200e9c1510054
:101c4000834f510014003a00050037000108780066
:101c50001100780028649000084878006000370080
:101c6000010878001100780018129000cfa2de0061
:101c7000612bb9000498be000690be0058003700e2
:101c8000010878001100780018119000cf91de0053
:101c90000288be00520037009080e90001087800f9
:101ca0001100780018149000080878004c003700e4
:101cb0009080e9000108780011027800cfa2de00d0
:101cc000612bb900049cbe000694be002808900059
:101cd000808141007304980081c7b3000800780038
:101ce000590007003e0037000869900051c6b30054
:101cf000814f51001b003a0010017800e4005100b0
:101d0000010878001100780091009000000c980004
:101d1000110c9800881190000300e00007003d00be
:101d20008081eb000001eb00880407000001be0089
:101d30008808900081005100080037000001eb0086
:101d4000820407000081700003003200080990003f
:101d5000820050000100370088109000410c98006c
:101d60001f0037009080e900010878001105780015
:101d70007a049800881490000900e00004003d00f7
:101d80000a007800f6fc070080047800070037009e
:101d9000090178008000eb000a00780014000700b9
:101da0000000e000010032008a045000490c980055
:101db0000b003700280890008081410005003700a3
:101dc00028089000808141000104e00001003a00f1
:101dd00051c2b300814978000000e800200c98004f
:101de0000000eb004f0578004f04be000000060025
:101df00003003700b0cf1000050032000201e900f7
:101e0000800178000200e000faff3a0000000500bf
:101e10000300780000000600020037000304e00021
:101e2000060032000001780002007800b04178001e
:101e300081cf5100f9ff3a00010037000001eb00ab
:101e40000200780000000600fc874700889fbe0063
:101e50008a9fbe008c9fbe008e1f7800000678000f
:101e600080c5b30080cf50000a00320077404000a8
:101e700080cf50000a0032006940400080cf5000ff
:101e80000b003200502e210080bf9f00ae002000ca
:101e90000a003700422d210082bf9f000600370054
:101ea000532e210083bf9f008e00200003003700c7
:101eb000542e210084bf9f000e0120001c027800d8
:101ec0009c0290002c039000bc0390000605be000d
:101ed0000404be0040c6b30080cf500003003200af
:101ee0006540400080cf50000b003a00e00f5200e8
:101ef000e08f5a00e00f5b00e08f5b0006003d00c2
:101f00006000b8006011b8000404500085845800d7
:101f10000605590087855900e80f57000400320074
:101f200040002000f00f57003c003a00010037004d
:101f300030002000e00f5400e08f5c00e00f5d00f7
:101f4000e08f5d0004003a008c1090008d012000ad
:101f50000100e000070032008e00e9008880600088
:101f60008fba97008180420091407800f1ef9f0086
:101f70007d012000800078008100e9000500330029
:101f80008b05d1000a85d3008984d3000884d3004f
:101f9000f9ff3700089ebe000a96be001300370006
:101fa0008d06e9008e00e900848060000fb997007b
:101fb000810041001141780083fd2f008d81410097
:101fc00082f77900800178008301e9000500330081
:101fd0008783d1000683d3008582d3000482d30097
:101fe000f9ff3700049ebe000696be001c02780072
:101ff0009c0290002c039000bc039000e00f520064
:10200000e08f5a00e00f5b00e08f5b00930034002c
:102010000d00e000e2ff3c00900037000c689000eb
:1020200081c6b300814f50000b00320006003c0017
:102030000004e00008003200e6c05000814f50006c
:1020400052003a0004003700c1c6b300814f50006f
:102050004e003a00230037000800e00004003a0078
:102060000c1090008d0120000000e00007003200fd
:10207000110009000e84d8000fba97000100420039
:1020800010407800f0ef9f007d0120001100090052
:102090000e84d8000b003700110009000e04d80090
:1020a0008d06e9008e81b900020454008fb89700b4
:1020b000088440009841780082fd2f000d01410006
:1020c00083777900000478000800e0000200320005
:1020d0000d00e000f0ff3c00cfc4de00614db90010
:1020e00027003700e00f5400e08f5c0004003a0046
:1020f0000c1090008d0120000000e000080032006c
:102100006171b9000800be00ba0307000fba97005a
:102110008000420091407800f1ef9f007d01200097
:102120006171b9000800be00a7fa07000c00370073
:102130006171b9000800be009f0307008d06e90029
:1021400080f1b900020454008fba9700088442005d
:102150009841780082fd2f000d01410083777900be
:102160000004be00e00f5000e08f58000200320073
:102170000d00e000eeff3c004fcdde008a05780048
:10218000089ebe000a96be0034003700e00f5400df
:10219000e08f5c00e00f5d00e08f5d0004003a001e
:1021a0000c1090008d0120000000e0000a003200b9
:1021b0006172b900612bb9000800be000a01be00bf
:1021c00033fb07000fba970080004200914078006f
:1021d000f1ef9f007d0120006172b900612bb90011
:1021e0000800be000a01be0022fb07000e003700f7
:1021f0006172b900612bb9000800be000a01be007f
:1022000027fb07008d06e90080f2b90004045400a2
:102210008fba9700088442009842780084fd2f000e
:102220000d02420085777a00009ebe000296be0035
:102230001c0478009c0490002c059000bc059000c4
:10224000e00f5400e08f5c00e00f5d00e08f5d0068
:10225000020034000d00e000e5ff3c00e80f5700ed
:1022600010003a003c1090000038a3000d0032002e
:10227000f78f560006003e0080fd2f000d00400045
:10228000ef40780000c3b30080cf5000050032005b
:1022900002c3b30071fd2f008d8040008d06e90060
:1022a00082f7780078811600420e98007c0090003a
:1022b00083fd2f008f8141008d804100a1fb07002d
:1022c0004c0890008c109000810f500006003d00db
:1022d00000805000300e98003c1090000040a1009b
:1022e000301698000f0037000100e0000d003d009f
:1022f000bc109000f4806000f08f500009003a009c
:102300002c119000ac089000810051003c09900015
:1023100082805000008050004240a900010034003b
:10232000300e98004f0778004f06be004f05be00e4
:102330004f04be00cf01b100000006000400fa0007
:10234000889fbe008a9fbe008c1f78000004780022
:1023500001067800a814900028089000808454009a
:10236000380890008084540048089000808454000d
:1023700058089000808454006808900080845400bd
:1023800078089000808454000002220090bf9f00d3
:1023900000032300a0bf9f00381090000028a30076
:1023a00015003a000900e000130034000905780028
:1023b0008a057800e20f5500010036002b0020004e
:1023c000c80190000b017800ee8057006800900073
:1023d00003000100600498000000e000aa00320041
:1023e000181090000b004000101498000b055500c9
:1023f0004240a900eeff3c00280990000200e000e6
:102400000c003400c80190008c0078006800900037
:1024100003000100600498008080eb000000e000f1
:102420009a00320098109000280890000080400028
:1024300010149800380d90000a00e00011003400dc
:102440008a057800e20f5500010036002b002000bd
:10245000c80190000b017800ec80570068009000e4
:1024600003000100600498000000e00086003200d4
:10247000181090000b004000101498000b05550038
:10248000edff370008699000c808900050c6b300ff
:10249000804f510008003a000100e00015003400b0
:1024a0005802900008099000980990006800900078
:1024b00004000100070037000100e0000d003400b7
:1024c000c801900001017800f800900068009000b9
:1024d00003000100600498008080eb000000e00031
:1024e0006a00320098109000480890000080400078
:1024f00010149800580d90000a00e00011003400fc
:102500008a057800e20f5500010036002b002000fc
:10251000c80190000b017800ec8057006800900023
:1025200003000100600498000000e0005600320043
:10253000181090000b004000101498000b05550077
:10254000edff3700086990006808900051c6b3009d
:10255000814f51000d003a000000e0001c003400e3
:1025600078019000c8089000010141006111b80095
:10257000828fd2008381d2005802900080007800c0
:102580006800900004000100090037000000e0002e
:102590000f00340078019000c808900081004100cd
:1025a000c80190000001780068009000030001005d
:1025b000600498008080eb000000e00033003200ef
:1025c0009810900068089000008040001014980057
:1025d000780d90000a00e000110034008a057800b0
:1025e000e20f5500010036002b002000c8019000ca
:1025f0000b017800ec805700680090000300010098
:10260000600498000000e0001f00320018109000e5
:102610000b004000101498000b055500edff37002b
:10262000381090008000eb000028a3001700320053
:102630000900e0001500340009057800e28f54001d
:10264000010036002a002000c80190000a0178002d
:10265000ee805700680090000300010060049800bd
:102660000000e00008003200181090000a0040004e
:10267000101498008a8454004240a900eeff3c00e8
:102680008000eb00010037008080eb000100780043
:102690004f0678004f05be004f04be000080fa00d0
:1026a000000006000108780000000600e6874700e9
:1026b000889fbe008a9fbe008c9fbe008e1f780040
:1026c00082bf9f00040478008299b900f2b79f008e
:1026d0000200e000590032000fb997000200e0004c
:1026e000570032000006be007fb79700c800900078
:1026f00068009000808f50000400390008007800c6
:10270000920007000000e0003b0035000040200080
:10271000180060000a0032008e017800a20020003c
:102720000c00be00090207000005be000080750015
:10273000070032008c0455008904e80005003700ca
:102740008e0478000a0020000b00200001003700f2
:102750008e0478004801900068009000020050004c
:10276000890f500003003100800478000a00200027
:102770000b0020006111b800828fd2008381d2004b
:10278000090278000c00be00c701070009075700c6
:102790004800900009004000400498000a85750038
:1027a00004003200080078002c0007000000e00060
:1027b00011003a000e00e0000f0032006148b8003e
:1027c000808fd2008180d2000000780000f0a1004c
:1027d0000c01d0008001d000030641004220a80077
:1027e00081864e004200a9004220ae004200a800af
:1027f0000c86d300bdff3700008020001800600069
:1028000002003200080078001400070000c0200019
:102810001800600002003200480090006004980038
:102820007fb197000e0751000fb997001100090002
:102830000287d80080017800010037008001eb009a
:10284000030078004f0778004f06be004f05be001a
:102850004f04be006f00b10000000600889fbe005c
:10286000000478000800e00010003a008004eb004b
:10287000090478008800d000402921000080400031
:10288000100078000000e00004003200f3ff0700b1
:102890000000e00001003d008084eb000804e80037
:1028a000e80f5400f3ff3a00250037000000220033
:1028b000180060008004eb0021003200a8049000a2
:1028c0000f00370009015100384090000000fb0064
:1028d000890078004ff807000000e00007003c0086
:1028e000280090004004980060049800500c980064
:1028f0001890a0008084eb00110037008084440011
:1029000048019000828f5400eeff390028009000ab
:10291000400498009800780002c020000281600006
:1029200001003a003800900001e8a30002003200e4
:102930006004980001003700500c98008004eb0000
:10294000090078004f04be0000000600889fbe000a
:102950008a1f780000047800c80090006801900089
:102960000000eb00828f50003c0039001800780016
:102970002200290002016000e20f5100070032002e
:10298000012020000000e0000100350001202400ab
:10299000008c70000080eb00300037000200260041
:1029a00002006000820f500009003a0038009000d9
:1029b000808f50000600390008007800a7ff07004c
:1029c000800078000080eb000100e00023003a0066
:1029d0001805780000c020000000650018003a00cb
:1029e000a80490006002200008004000808f54007e
:1029f00013003a0000202000f10007002004980096
:102a00000000e00005003a002904980049049800fd
:102a10008904e80039049800080037000a60a00023
:102a20000a0c7800400498000120200080804000bb
:102a300031049800400c9800500c98000c000700de
:102a4000280090005004980038009000600498001e
:102a500000002600180c70000000eb004f05780005
:102a60004f04be0000000600a05d21006200370098
:102a7000881f7800683621001804e00003003a003f
:102a8000f9ff070020c0b300004c78004f04780025
:102a900000000600889fbe0000047800080078004f
:102aa0006eff07008004780000042000180060001a
:102ab00002003200280090005c0007000000eb00dc
:102ac00020049800384090000004e0000500350024
:102ad0000000fb00c6f707000000e0000100320024
:102ae0008084eb00181090000000e0000800320025
:102af0000af807000000e000010032008084eb00cb
:102b000018109000490007000000eb001014980016
:102b10000008200018006000150032000001eb00e2
:102b20006000b8000202d0004329210003024200e5
:102b3000940f140005003a00000040008180480016
:102b4000008041000008eb000600370061004000f3
:102b5000e08048000201e800e80f5000e08f5800d4
:102b6000f0ff3a0008007800300007000e00370040
:102b7000000c780000c0eb00304498006002200098
:102b80000800400020049800400498005004980079
:102b9000400c980060049800500c98007004980055
:102ba00076004400000c9800090078004f04be0035
:102bb00000000600881f78000004eb006140b800a8
:102bc000e2ff2f00f3ff2f000d010700222a210052
:102bd00080004100110078000000e0000100320098
:102be000acff07000804e800e80f5400f3ff3a00c8
:102bf0004f04780000000600010020000100e00002
:102c000009003200010080000100e00006003200ef
:102c10008100e900010088008100d00002008000ee
:102c20008280400080087800000006000000e0007c
:102c30002f003200c0017800e38f51002c003600d5
:102c40000308a3002a003a00119b80000100e00065
:102c500002003200810f5000040031001100980082
:102c6000109b880016003700820078001101900048
:102c70000200e00002003200800f5100faff39002c
:102c80001102780084824000850f5000180039003e
:102c9000808f520003003a00830842000100780050
:102ca000070037000200e00003003200830140000b
:102cb000830f51000e003900120098009000980018
:102cc000900090000100e000090032001001400077
:102cd000828f500006003a00023621000009eb0006
:102ce0001001780011084100910090001100980037
:102cf00000000600889fbe0000047800019b800051
:102d00000100e00002003200010078000d003700f1
:102d1000119b80002036210004003700910f5400e1
:102d2000250036000180e800910090000100e000dd
:102d3000faff3a0010003700920f54001e003600d0
:102d40000280e800100178000200e000faff3a007b
:102d500011017800119b800020362100040037000b
:102d6000910f5400140036000180e800910090009b
:102d7000828f5000faff3a00499b8000888f5400f0
:102d8000010031008804780009007800360007004f
:102d90000000e00004003a00888f54000500320073
:102da0008904d100f5ff3700091878009fff07005c
:102db000d2ff37000000eb004f04be000000060009
:102dc000881f7800630440000800a1008000eb0029
:102dd000800f540021003600e30f540001003e0034
:102de0004800200008007800c2ff07008000eb00c8
:102df0000000e00019003200900078009101780096
:102e000064815100880f51000300310011019000ce
:102e100002087800070037000881400002087800a7
:102e2000910190001301980010017800110914001d
:102e300088087800100178000000eb000200e00034
:102e400004003200920190000300e0000100320013
:102e50000280e800009b88008180e8000100780083
:102e60004f04780000000600800078000000eb00ae
:102e70000100e000050034000100780030f7070091
:102e8000e10f400001003a000000eb0000000600e6
:102e900000c0da000000060000c0da0000000600f2
:102ea00000c0da00000006003400f8003200f8002c
:102eb0000203be00820270008502720002f0a600ca
:102ec0008301e800a301880000f0a6008100e8006b
:102ed000910188001500b2000c0032001049780002
:102ee0000402e900150032006101410002003900ce
:102ef0003420ec000200280061004000f7ff390098
:102f00003220ec0000002800f4ff370010097800a0
:102f10000482e90009003200620141000200390028
:102f20003420ec000200280062004000f7ff390066
:102f30003220ec0000002800f4ff37003200f900d6
:102f40003400f9000601be00000006000300e000a6
:102f5000070032009501800001d0fe001042780089
:102f600005d0fe000402fb00820f52001100320067
:102f70008301e9009501800001d0fe001042780035
:102f800005d0fe000404e0000800320000027800d2
:102f90001000b00000026a004260af0000f0a00024
:102fa0000482d2000180b000e8ff3700000020005a
:102fb0000100200000000600839f68000100e0007f
:102fc00002003d0060001000e08018000300e000f7
:102fd00002003d0060011100e0811900faf60700cf
:102fe0004f00e00002003b0060001000e08018008d
:102ff00000000600f4f607000400be000000060012
:10300000020ab900001bb9000200b80081004200aa
:083010008100430000000600ee
:020000040000fa
:1030180054520000522d00005520000000540000ba
:10302800525200002d4400002000000054520000bd
:10303800522d00004c2000000054000052520000a5
:103048002d52000020000000526900006774000043
:103058005520000000520000696700007444000019
:10306800200000002d2d00002d2d00002d20000037
:10307800004c000065660000744400002000000059
:103088004c650000667400005520000000540000e4
:10309800524c00002d550000200000005452000042
:1030a8004c2d00004420000000540000524c000049
:1030b8002d4c000020000000545200004c2d000050
:1030c8005220000000250000346400002534000070
:1030d800642500003464000025340000640000000a
:1030e800312e000020630000616c0000696200005e
:1030f80072610000746900006f6e000020200000fb
:10310800003200002e2000007365000074200000cb
:103118006e6f0000726d00002f720000657600006f
:1031280020000000332e00002074000065730000aa
:10313800742000006b6500007973000020200000f7
:1031480020200000004d0000494400005f4c0000b2
:10315800583d000025340000643c00003136000072
:1031680030300000004d0000494400005f4c000072
:10317800583d000025340000643e00003234000051
:1031880030300000004d0000494400005f4c000052
:10319800593d000025340000643c00003136000031
:1031a80030300000004d0000494400005f4c000032
:1031b800593d000025340000643e00003234000010
:1031c80030300000004d0000494400005f5200000c
:1031d800583d000025340000643c000031360000f2
:1031e80030300000004d0000494400005f520000ec
:1031f800583d000025340000643e000032340000d1
:1032080030300000004d0000494400005f520000cb
:10321800593d000025340000643c000031360000b0
:1032280030300000004d0000494400005f520000ab
:10323800593d000025340000643e0000323400008f
:103248003030000000740000757200006e2000002d
:103258004c200000757000002026000020000000af
:1032680025340000640000004d410000585f000054
:103278004c5900003d250000346400003c25000046
:103288003464000000740000757200006e200000b5
:103298004c200000646f0000776e000026000000dc
:1032a8004d490000585f00004c5900003d250000c2
:1032b800346400003e2500003464000000740000ff
:1032c800757200006e2000004c2000006c65000044
:1032d80066740000260000004d410000585f0000a1
:1032e8004c5800003d250000346400003c250000d7
:1032f8003464000000740000757200006e20000045
:103308004c2000007269000067680000740000002b
:103318004d4900004e5f00004c5800003d2500005c
:10332800346400003e25000034640000007400008e
:10333800757200006e2000005220000075700000b9
:1033480020260000200000004d410000585f0000ca
:10335800525900003d250000346400003c2500005f
:103368003464000000740000757200006e200000d4
:1033780052200000646f0000776e000026000000f5
:103388004d4900004e5f0000525900003d250000e5
:10339800346400003e25000034640000007400001e
:1033a800757200006e200000522000006c6500005d
:1033b80066740000260000004d4900004e5f0000c2
:1033c800525800003d250000346400003e250000ee
:1033d8003464000000740000757200006e20000064
:1033e800522000007269000067680000742600001f
:1033f800004d0000415800005f520000583d000099
:1034080025340000643c00002534000064000000fe
:103418002a2a0000205300004156000045200000e1
:1034280045520000524f0000522000002a2a000096
:10343800004100005050000020490000443d0000b9
:1034480020250000303200005825000030320000ee
:1034580058250000303200005825000030320000a6
:103468005800000025320000640000005457000096
:10347800452000004c49000054450000205200003f
:1034880045440000002000006e3d00002564000057
:103498000054000052490000474700004552000010
:1034a8002042000055540000544f00004e200000f8
:1034b80052000000545200004947000047450000f0
:1034c8005220000042550000545400004f4e0000a6
:1034d800204c000000250000327500002e25000059
:1034e80030320000755600002025000033750000ba
:1034f8005220000000420000555a00002000000041
:10350800426f00006666000000250000327500006a
:103518002e250000303200007556000020250000de
:10352800337500005220000025320000754200006b
:103538004200000043480000415200004745000097
:103548000042000052450000414b000000250000e9
:10355800327500002e25000030320000755600003c
:103568002025000035730000202500003375000079
:1035780000250000327500002e25000030320000c2
:103588007520000025330000752e0000253000004e
:10359800317500005620000025330000750000003a
:1035a80025320000752e000025300000327500001d
:1035b8005620000025330000755200002025000029
:1035c8003375000043000000202a00004c4f000023
:1035d800572a000020250000337500005220000003
:1035e80025330000754200000025000032750000f8
:1035f8002e250000303200007556000020250000fe
:103608003375000052200000253300007542000089
:1036180000c20000b3bc0000dd200000bcaf000009
:10362800cadf0000b220000020200000b5bb000067
:10363800dac0000020cf0000cfc30000debd0000cc
:10364800202000002020000020200000b5bb000042
:10365800dac0000020cf0000cfc30000debd0000ac
:083668002020000020000000fa
:020000040000fa
:103670000000fa0001eca8000080fa00000006003b
:103680000400fa00000f7800110798001e0078006f
:10369000e20f500007003200e30f50000800320034
:1036a000e10f50000a003a009e009000316188004e
:1036b000080037009e009000316288000500370046
:1036c0009e00900031638800000000000100370078
:1036d000000000000080fa00000006000200fa006e
:1036e000000f78001e007800e10f50000900320042
:1036f000e10f500005003900e20f500007003200d2
:10370000e30f5000070032000800370001eba8006b
:103710000600370011eba8000400370021eba800d9
:103720000200370031eba800000000000080fa0022
:10373000000006000400fa00000f7800110798004e
:103740001e007800e10f50000b003200e10f500026
:1037500005003900e20f50000b003200e30f50006b
:103760000d003200100037009e00900021588800a4
:10377000062bef000c0037009e009000a158880037
:10378000162bef00080037009e009000215988009a
:10379000262bef00040037009e009000a1598800fe
:1037a000362bef00000000000080fa000000060049
:1037b0000400fa00000f7800110798001e0078003e
:1037c000e10f50000a003200e10f500005003900ff
:1037d000e20f500009003200e30f50000a003200ef
:1037e0000c0037009e0090006158880009003700e7
:1037f0009e009000e1588800060037009e0090006f
:1038000061598800030037009e009000e15988004c
:10381000000000000080fa00000006000000fa002e
:10382000ffff37000000fa00ffff37000000fa003a
:10383000196ea900194ea900ffff37003a00fa00df
:10384000881f780000002400011020005c1a070087
:10385000008fbe0050052000a10a2000b619070005
:103860001e0078009e009000e21907004047980073
:103870004e4090000004a2000004e000030032006b
:10388000e6ff070010c0b300160137000000eb0090
:10389000401f980010808000301f98003e19900053
:1038a000ce1990004c18dd00c410de0081007000bd
:1038b0004c10dd00301f9800411f9800be1890008a
:1038c00022808000f0ff20000000610000804000a6
:1038d000301f98003e189000ce18900030079800d6
:1038e000410798000000eb00401f980030808000e6
:1038f000301f98003e199000ce1990004c18dd0042
:10390000c410de00810070004c10dd00301f9800f4
:10391000411f9800be18900042808000f0ff2000f8
:103920000000610000804000301f98003e189000a9
:10393000ce18900050079800610798000000eb0037
:10394000401f980050808000301f98003e19900062
:10395000ce1990004c18dd00c410de00810070000c
:103960004c10dd00301f9800411f9800be189000d9
:1039700062808000f0ff20000000610000804000b5
:10398000301f98003e189000ce18900070079800e5
:10399000010f98000000eb00401f9800708080002d
:1039a000301f98003e199000ce1990004c18dd0091
:1039b000c410de00810070004c10dd00301f980044
:1039c000411f9800be18900082808000f0ff200008
:1039d0000000610000804000301f98003e189000f9
:1039e000ce189000100f9800210f98000000eb00f7
:1039f000401f980090808000301f98003e19900072
:103a0000ce1990004c18dd00c410de00810070005b
:103a10004c10dd00301f9800411f9800be18900028
:103a2000a2808000f0ff20000000610000804000c4
:103a3000301f98003e189000ce189000300f98006c
:103a4000410f98000000eb00401f9800b0808000fc
:103a5000301f98003e199000ce1990004c18dd00e0
:103a6000c410de00810070004c10dd00301f980093
:103a7000411f9800be189000c2808000f0ff200017
:103a80000000610000804000301f98003e18900048
:103a9000ce189000500f9800610f98005e019000c2
:103aa000ee0190003e009000ce0090000202be00a9
:103ab0000001be001e0078009e0090005b19070008
:103ac000404798004e4090000084fb001e09900083
:103ad000ae0990007e0090008e0890004400200007
:103ae000050020003e034200ae834a000202be00f1
:103af0000001be000600be004c1907000080fb005c
:103b00000000640000f0a7000000ea000000ea00e6
:103b10004f00de00404798004e4090000084fb00bc
:103b20005e099000ee0990003e089000ce089000db
:103b300084002000050020003e034200ae834a00be
:103b40000202be000001be000600be0037190700d9
:103b50000080fb000000640000f0a7000000ea0005
:103b60000000ea004f00de00404798004e40900001
:103b70000004a2000004e0000300320027ff070059
:103b800010c0b30057003700f01807001e0078007f
:103b90009e0090000a190700700f98000117980006
:103ba00022002000030020003e004100ae804900ba
:103bb00003190700101798002117980044002000ef
:103bc000050020003e004200ae804a00fc180700bd
:103bd0003017980041179800620020000300200071
:103be0003e004100ae804900f518070050179800cc
:103bf0006117980084002000050020003e0042006c
:103c0000ae804a00ee18070070179800011f980058
:103c1000a2002000030020003e004100ae804900c9
:103c2000e7180700101f9800211f98003e01900020
:103c3000ce0190007e0890008e109000800f510001
:103c4000818f590023003a005e019000ee01900040
:103c50001e109000ae109000800f5100818f59000f
:103c60001c003a007e0190008e0990003e109000ea
:103c7000ce109000800f5100818f590015003a003e
:103c80001e099000ae0990005e109000ee109000aa
:103c9000800f5100818f59000e003a003e099000bc
:103ca000ce0990007e1090008e189000800f510079
:103cb000818f590007003a005e099000ee099000dc
:103cc0001e189000ae189000800f5100818f59008f
:103cd00003003200d3fe070010c0b300010037001c
:103ce0000040eb004f0478000080fa00000006005e
:103cf0000800fa000000240001102000301907001d
:103d0000008fbe001e0078009e009000ac180700d7
:103d10002007980031079800ae009000f0ff2000c7
:103d200000806000208088002e009000be0090007f
:103d30004409dd004c00de0000007100cc08de000c
:103d400020079800310798002e009000108088000e
:103d500011808000f07c2000808f500002003e0027
:103d600010c0b300880037002200200003002000ac
:103d70003e004100ae8049009118070020079800de
:103d800031079800ae009000f0ff20000080600036
:103d9000408088002e009000be009000c409dd0025
:103da0004c00de0000807100cc08de002007980087
:103db000310798002e0090003080880041808000fc
:103dc000f07c2000808f500002003e0010c0b30045
:103dd0006d00370042002000030020003e0041003b
:103de000ae80490076180700200798003107980038
:103df000ae009000f0ff200000806000608088002e
:103e00002e009000be009000c409dd004c00de00d2
:103e100000807100cc08de00200798003107980070
:103e20002e0090005080880061808000703e20004d
:103e3000808f500002003e0010c0b30052003700d7
:103e400062002000030020003e004100ae804900d7
:103e50005b1807002007980031079800ae0090001b
:103e6000f0ff200000806000808088002e0090001d
:103e7000be009000c409dd004c00de00008071002f
:103e8000cc08de0020079800310798002e00900033
:103e90007080880071808000f07c2000808f50004e
:103ea00002003e0010c0b30037003700820020003f
:103eb000030020003e004100ae804900401807008a
:103ec0002007980031079800ae009000f0ff200016
:103ed00000806000a08088002e009000be0090004e
:103ee000c409dd004c00de0000807100cc08de005b
:103ef00020079800310798002e00900090808800dd
:103f0000a1808000f07c2000808f500002003e00e5
:103f100010c0b3001c003700a200200003002000e6
:103f20003e004100ae804900251807002007980098
:103f300031079800ae009000f0ff20000080600084
:103f4000c08088002e009000be009000c409dd00f3
:103f50004c00de0000807100cc08de0020079800d5
:103f6000310798002e009000b0808800c18080004a
:103f7000703e2000808f500002003e0010c0b30051
:103f8000010037000040eb000080fa00000006004e
:103f90001200fa0030079800410798005207980075
:103fa0006307980074079800050f9800ee009000d2
:103fb0004e009000808f500031003600de009000ef
:103fc0000e089000808050006e009000808f50009e
:103fd00002003e000080200055003700ce00900017
:103fe0007e009000808040006e009000808f500026
:103ff00002003900004020004d003700ce00900044
:104000007e00900000804000ee0090000080500094
:104010008000eb00008fbe001e0178009e01900022
:104020004a18dd00c610de00810070004a10dd0075
:10403000008fbe00de0090000e08900080805000cf
:104040004e0190007e009000000041000080500072
:104050008000eb000001be001e0078009e00900072
:10406000d9f20700008fbe009e007800210798005b
:10407000ae00900000402000008040002c0037007f
:10408000be0090000e089000808040006e009000fe
:10409000808f5000020039000000eb002400370040
:1040a000ce0090007e009000808050006e00900056
:1040b000808f500002003e00004020001c003700ae
:1040c000be0090000e08900000804000ee009000be
:1040d000008050008000eb00008fbe001e017800c1
:1040e0009e0190004a18dd00c610de0081007000bd
:1040f0004a10dd00008fbe00ce0090007e009000d0
:10410000808050003e0190000e08900000004100a9
:10411000008050008000eb000001be001e0078000f
:104120009e009000a8f20700008fbe001e007800dd
:104130000080fa00000006001600fa0020579800e0
:10414000315798004257980053579800c18180001a
:10415000f00f2000008f60000040eb0070479800d7
:10416000ce5090002e50900080cf50000d003600b1
:10417000ce5090002e50900000c050006047980034
:10418000be0090001e0078008088b90030079800bb
:10419000fe4090002e50900000c0400070479800f4
:1041a00010003700ae5090004e50900000c05000fc
:1041b00060479800be0090001e0078008088b9001b
:1041c00030079800ae509000114f98000040eb006f
:1041d000004f9800ce0090003e00900000805000fc
:1041e000300798000040eb00304f9800de50900000
:1041f0003e50900080cf50000d003600de50900001
:104200003e50900000c05000204f9800de0090000b
:104210001e0078008088b90050079800be489000c2
:104220003e50900000c04000304f98001000370012
:10423000be5090005e50900000c05000204f98008b
:10424000de0090001e0078008088b90050079800ba
:10425000be509000514f98000040eb00404f980036
:10426000ee0090005e009000008050005007980023
:10427000d1818000f00f20000080600010079800be
:10428000de0090003e009000808f5000160031004c
:10429000be0090005e009000008050007007980003
:1042a0007e4890008080fb001e0090008088b9004e
:1042b000200798006e4890008080fb001e00900050
:1042c0008088b90070079800de0090002e009000f2
:1042d000808040007e4890000080fb00008040000d
:1042e000000f980015003700de0090003e0090009f
:1042f00000805000700798007e4890008080fb008e
:104300001e0090008088b900200798006e48900039
:104310008080fb001e0090008088b9007007980024
:10432000de0090002e009000808050007e489000bb
:104330000080fb0000805000000f98008e08900065
:1043400000082000008060000000e0000300320050
:104350001e5090000040e800105798001e5090003a
:104360000080fa00000006000600fa0003818000c9
:104370001280800031808000208080002503200092
:104380002403200002ff0700100798001e00900081
:104390004300de00100798009e009000f00f200000
:1043a000808f50000300360000c0eb0035f0b700ee
:1043b000030037001e0090000040780035f0b70081
:1043c000f380800042808000618080005080800007
:1043d0002503200024032000edfe070010079800ad
:1043e0001e0090004300de00100798009e00900021
:1043f000f00f2000808f50000300360000c0eb005b
:1044000036f0b700030037001e009000004078002f
:1044100036f0b7002ad0bf000004e0002c003a00bc
:10442000d3808000a2808000c1808000b0808000a6
:104430002503200024032000d5fe07001007980064
:104440001e0090004300de00100798009e009000c0
:10445000f00f2000808f50000300360000c0eb00fa
:1044600033f0b700030037001e00900000407800d2
:1044700033f0b700e380800072808000918080007c
:10448000808080002503200024032000c0fe070058
:10449000100798001e0090004300de0010079800ef
:1044a0009e009000f00f2000808f50000300360027
:1044b00000c0eb0034f0b700030037001e0090008e
:1044c0000040780034f0b7003c70ef00e80037009f
:1044d0002ad0bf00e14f5000ba003a00d3808000dc
:1044e000a2808000c1808000b08080002503200071
:1044f00024032000a6fe0700c0818800e38080001e
:1045000072808000918080008080800025032000e0
:10451000240320009efe0700d0818800c081800017
:104520004800de0000407800e900b90080407800d3
:10453000d08180004800de000040780000c05000bc
:10454000684f40001e417800010421008248780035
:1045500040d0bf003ef0b700d1818000f07f200046
:10456000808f500001003e001e4fe9001e41780080
:10457000f1032100824878003fd0bf003df0b70032
:10458000c1818000f07f2000808f500006003e0037
:104590003dd0bf00694040003ff0b7003ed0bf00b3
:1045a0006940400040f0b70040d0bf000080fb00f1
:1045b0001110210000804000904178003fd0bf00e2
:1045c0000080fb00111021000080400010417800a5
:1045d0003ed0bf000080fb00111021000080400091
:1045e000904078003dd0bf000080fb0014102100f7
:1045f0000000420010407800cffe070033f0b70003
:1046000040d0bf000080fb00010b21000080400073
:10461000904178003fd0bf000080fb00010b2100db
:1046200000804000104178003ed0bf000080fb00b9
:10463000010b210000804000904078003dd0bf0079
:104640000080fb00040b21000000420010407800b5
:10465000b9fe070034f0b7000040eb0010479800a7
:10466000c181800000402000808f500026003a0069
:1046700010c0b30010479800d18180000040200096
:10468000808f50000f003600d181800000c02f00c5
:1046900000804000d0818800d1818000f0a22b00f2
:1046a0000008b8004308de00200798002e009000a4
:1046b0008040780000c8b30000c0400033f0b7006d
:1046c0000e003700d08180000140200000805000a3
:1046d000d0818800d1818000f0a22b000008b800b2
:1046e0004308de00200798002e009000004078006c
:1046f00001c8b30000c0500033f0b70033d0bf0092
:104700000040ea0034f0b700c18180000040200082
:10471000808f500002003e0010c0b3001047980088
:1047200000d0bf000080fb00800040002015210069
:104730000080400090007800c08180000008b00038
:10474000808f50000200360010c0b3001047980060
:1047500000d0bf008080fb00c281800081814000ca
:104760002115210081804100820878000040e80086
:1047700000f0b70000d0bf00f04f500001003a0039
:104780000070ef001e409000e14f500002003a0020
:1047900080c0b30030f0b70030d0bf000004e000ac
:1047a0000600320030d0bf000040e90030f0b70012
:1047b00010c0b3003cf0b7002d0037003c70ef0094
:1047c0002b003700d3808000a2808000c180800051
:1047d000b08080002503200024032000ecfd0700aa
:1047e000100798001e0090004300de00100798009c
:1047f0009e009000f00f2000808f500003003600d4
:1048000000c0eb0033f0b700030037001e0090003b
:104810000040780033f0b700e380800072808000b1
:1048200091808000808080002503200024032000e8
:10483000d7fd0700100798001e0090004300de001f
:10484000100798009e009000f00f2000808f50000d
:104850000300360000c0eb0034f0b700030037005f
:104860001e0090000040780034f0b7003c70ef006c
:10487000510321009140780000c8b30080cf500060
:104880000f003a00610321009140780000c8b30096
:1048900080cf50000a003a00310321009140780097
:1048a00000c8b30080cf500005003a00410321004a
:1048b0009140780000c8b30080cf50000100320062
:1048c0000621ef000080fa00000006000200fa0056
:1048d000000f780010708000640060000000e000ad
:1048e0000b003200508280000000e80050828800f7
:1048f000508280000000e00003003a0050828000f7
:104900000000e800508288004830ef000a003700bd
:10491000408280000000e8004082880040828000e1
:104920000000e00003003a00408280000000e80040
:10493000408288004a30ef001e0078000000e0004e
:104940000d0032001e0078008000eb006011b800fe
:10495000f4462d00854220006033b800aef1070018
:10496000843e2000050020006033b80041f10700bc
:104970000000be009e1907000080fa00000006003b
:104980000200fa000040eb00004f780006003700fc
:104990001e80fb0021172100008040008040eb00ba
:1049a000014878001e4fe8001e407800ff4f50007d
:1049b000f7ff36000080fa00000006000200fa004f
:1049c00031818000010f7800f0c520009e00780042
:1049d000808f500018003600d01b21008040eb0073
:1049e00001487800d01b210090407800c01b2100b6
:1049f00001487800c01b210090407800b01b2100c6
:104a000001487800b01b210090407800a01b2100d5
:104a100001487800a01b210090407800901b2100e5
:104a200001487800901b210090407800801b2100f5
:104a3000014878009d003700408020009e007800eb
:104a4000808f500017003600801b210011c0b3007a
:104a500001487800d01b21008040eb00014878001d
:104a6000d01b210090407800c01b21000148780035
:104a7000c01b210090407800b01b21000148780045
:104a8000b01b210090407800a01b21000148780055
:104a9000a01b210090407800901b21000148780065
:104aa00082003700005d20009e007800808f50005b
:104ab00017003600901b210011c0b3000148780098
:104ac000d01b21008040eb0001487800d01b210062
:104ad00090407800c01b210001487800c01b2100d5
:104ae00090407800b01b210001487800b01b2100e5
:104af00090407800a01b210001487800a01b2100f5
:104b000090407800801b2100014878006700370042
:104b1000003a20009e007800808f50001700360079
:104b2000c01b210011c0b30001487800d01b210038
:104b30008040eb0001487800d01b210090407800b5
:104b4000b01b210001487800b01b21009040780084
:104b5000a01b210001487800a01b21009040780094
:104b6000901b210001487800901b210090407800a4
:104b7000801b2100014878004c003700e022200013
:104b80009e007800808f500017003600d01b210057
:104b900011c0b30001487800c01b21008040eb0029
:104ba00001487800c01b210090407800b01b210014
:104bb00001487800b01b210090407800a01b210024
:104bc00001487800a01b210090407800901b210034
:104bd00001487800901b210090407800801b210044
:104be0000148780031003700a00b20009e007800bb
:104bf000808f500017003600b01b210011c0b30099
:104c000001487800d01b21008040eb00014878006b
:104c1000d01b210090407800c01b21000148780083
:104c2000c01b210090407800a01b210001487800a3
:104c3000a01b210090407800901b210001487800c3
:104c4000901b210090407800801b210001487800d3
:104c500016003700a01b210011c0b30001487800e6
:104c6000d01b21008040eb0001487800d01b2100c0
:104c700090407800c01b210001487800c01b210033
:104c800090407800b01b210001487800b01b210043
:104c900090407800901b210001487800901b210073
:104ca00090407800801b21000148780041818000fd
:104cb000010f780030c620009e007800808f5000e1
:104cc00018003600701b21008040eb00014878007e
:104cd000701b210090407800601b21000148780083
:104ce000601b210090407800501b21000148780093
:104cf000501b210090407800401b210001487800a3
:104d0000401b210090407800301b210001487800b2
:104d1000301b210090407800201b210001487800c2
:104d20009d003700508020009e007800808f50004a
:104d300017003600701b210011c0b3000148780035
:104d4000601b21008040eb0001487800601b2100bf
:104d500090407800501b210001487800501b210032
:104d600090407800401b210001487800401b210042
:104d700090407800301b210001487800301b210052
:104d800090407800201b2100014878008200370005
:104d9000b06820009e007800808f50001700360019
:104da000601b210011c0b30001487800701b210076
:104db0008040eb0001487800701b21009040780093
:104dc000501b210001487800501b210090407800c2
:104dd000401b210001487800401b210090407800d2
:104de000301b210001487800301b210090407800e2
:104df000201b210001487800670037005051200037
:104e00009e007800808f500017003600301b210074
:104e100011c0b30001487800701b21008040eb00f6
:104e200001487800701b210090407800601b210031
:104e300001487800601b210090407800501b210041
:104e400001487800501b210090407800401b210051
:104e500001487800401b210090407800201b210071
:104e6000014878004c003700003a20009e0078008e
:104e7000808f500017003600201b210011c0b300a6
:104e800001487800701b21008040eb000148780049
:104e9000701b210090407800601b210001487800c1
:104ea000601b210090407800501b210001487800d1
:104eb000501b210090407800401b210001487800e1
:104ec000401b210090407800301b210001487800f1
:104ed00031003700e02220009e007800808f5000d3
:104ee00017003600401b210011c0b30001487800b4
:104ef000701b21008040eb0001487800701b2100ee
:104f000090407800601b210001487800601b210060
:104f100090407800501b210001487800501b210070
:104f200090407800301b210001487800301b2100a0
:104f300090407800201b21000148780016003700bf
:104f4000501b210011c0b30001487800701b2100e4
:104f50008040eb0001487800701b210090407800f1
:104f6000601b210001487800601b21009040780000
:104f7000401b210001487800401b21009040780030
:104f8000301b210001487800301b21009040780040
:104f9000201b210001487800b07080004e00de0028
:104fa0006140600080407800e01b210001487800eb
:104fb00021818000010f780030d620009e0078000b
:104fc000808f50000c003600101c21008040eb0048
:104fd00001487800101c210090407800001c21003e
:104fe00001487800001c210090407800f01b21004f
:104ff0000148780029003700e09c20009e007800de
:10500000808f50000b003600101c210011c0b3002f
:1050100001487800001c21008040eb000148780026
:10502000001c210090407800f01b2100014878000e
:105030001a003700907e20009e007800808f50007c
:105040000b003600f01b210011c0b30001487800ae
:10505000101c21008040eb0001487800101c21004a
:1050600090407800001c2100014878000b003700b8
:10507000101c210011c0b30001487800101c210051
:1050800090407800001c210001487800001c21009d
:1050900090407800f01b2100014878000080fa0061
:1050a000000006000200fa0044fe07000040eb008a
:1050b000004f78006e0037001e80fb00211b21008e
:1050c0000080400010407800e14f50001f003a007f
:1050d0001e80fb00b11d2100008040008040eb00dd
:1050e000014878001e80fb00b11c210000804000b8
:1050f00010407800e24f500008003c001e80fb008a
:10510000b11c210080804000914078008140e8007f
:10511000b21c210000004100014878001e80fb0005
:10512000b11c21000080400010407800e34f500087
:1051300024003a001e80fb00b11e210000804000c8
:1051400011c0b300014878001e0037001e80fb002c
:10515000b11c2100008040008040eb000148780035
:105160001e80fb00b11d210000804000104078002f
:10517000e24f500008003c001e80fb00b11d2100e2
:1051800080804000914078008140e800b21d2100fd
:1051900000004100014878001e80fb00b11d210085
:1051a0000080400010407800e34f500005003a00b6
:1051b0001e80fb00b11e2100008040008040eb00fb
:1051c000014878001e80fb00b11e210000804000d5
:1051d00010407800e14f50000c003a001e80fb00a8
:1051e000b11f210000804000104078000004e00062
:1051f00006003a001e80fb00b12021000080400024
:1052000011c0b30001487800050037001e80fb0084
:10521000b1202100008040008040eb000148780070
:105220001e80fb00b11e21000080400090407800ed
:105230001e80fb00b21f21000000410010407800da
:1052400080cf5000010032000621ef001e80fb00dd
:105250009e80fb00b21e2100810041009140780039
:10526000b21f210000004100014878001e4fe800f5
:105270001e407800ef4f50008fff36000080fa008c
:10528000000006000400fa000040eb00004f780028
:10529000cafd0700201b2100104078000004e00038
:1052a000050032008017210062002000c180290023
:1052b000a4ef070033003700301b210010407800b6
:1052c0000004e00005003200801721006200200089
:1052d000318129009bef07002a003700401b210085
:1052e000104078000004e000050032008017210023
:1052f00062002000a181290092ef07002100370001
:10530000501b2100104078000004e000050032002e
:1053100080172100620020001182290089ef070018
:1053200018003700601b2100104078000004e000e6
:1053300007003200801721006200200081822900ce
:1053400080ef0700a0c0b300004f78000d003700c9
:10535000701b2100104078000004e00005003200be
:105360008017210062002000f182290075ef0700fc
:1053700004003700801721006200200061832900ab
:1053800070ef0700801b2100104078000004e0004f
:105390000500320062002000d1832900201721007f
:1053a00068ef070031003700901b210010407800a3
:1053b0000004e00005003200620020004184290062
:1053c000201721005fef070028003700a01b2100f5
:1053d000104078000004e000050032006200200068
:1053e000b18429002017210056ef07001f00370065
:1053f000b01b2100104078000004e00005003200de
:105400006200200021852900201721004def0700b0
:1054100016003700c01b2100104078000004e00097
:10542000050032006200200091852900201721002c
:1054300044ef07000d003700d01b2100104078001a
:105440000004e0000500320062002000018629000f
:10545000201721003bef0700040037006200200006
:10546000618329002017210036ef0700e01b21008f
:10547000104078000004e00004003200e017210032
:1054800011c4b3000148780003003700e017210081
:10549000d1c2b30001487800f017210001c2b30067
:1054a00001487800101c2100104078000004e00042
:1054b0000400320000182100c1c4b3000148780084
